{
  "contractName": "mainContract",
  "abi": [
    {
      "constant": true,
      "inputs": [],
      "name": "acCount",
      "outputs": [
        {
          "internalType": "uint256",
          "name": "",
          "type": "uint256"
        }
      ],
      "payable": false,
      "stateMutability": "view",
      "type": "function"
    },
    {
      "constant": true,
      "inputs": [
        {
          "internalType": "string",
          "name": "",
          "type": "string"
        }
      ],
      "name": "accountNoToName",
      "outputs": [
        {
          "internalType": "string",
          "name": "",
          "type": "string"
        }
      ],
      "payable": false,
      "stateMutability": "view",
      "type": "function"
    },
    {
      "constant": true,
      "inputs": [
        {
          "internalType": "uint256",
          "name": "",
          "type": "uint256"
        }
      ],
      "name": "accounts",
      "outputs": [
        {
          "internalType": "string",
          "name": "accountNo",
          "type": "string"
        },
        {
          "internalType": "string",
          "name": "name",
          "type": "string"
        }
      ],
      "payable": false,
      "stateMutability": "view",
      "type": "function"
    },
    {
      "constant": true,
      "inputs": [
        {
          "internalType": "string",
          "name": "",
          "type": "string"
        }
      ],
      "name": "codeToIndex",
      "outputs": [
        {
          "internalType": "uint256",
          "name": "",
          "type": "uint256"
        }
      ],
      "payable": false,
      "stateMutability": "view",
      "type": "function"
    },
    {
      "constant": true,
      "inputs": [],
      "name": "moduleCount",
      "outputs": [
        {
          "internalType": "uint256",
          "name": "",
          "type": "uint256"
        }
      ],
      "payable": false,
      "stateMutability": "view",
      "type": "function"
    },
    {
      "constant": true,
      "inputs": [
        {
          "internalType": "uint256",
          "name": "",
          "type": "uint256"
        }
      ],
      "name": "modules",
      "outputs": [
        {
          "internalType": "uint256",
          "name": "index",
          "type": "uint256"
        },
        {
          "internalType": "string",
          "name": "code",
          "type": "string"
        },
        {
          "internalType": "string",
          "name": "description",
          "type": "string"
        },
        {
          "internalType": "string",
          "name": "moduleType",
          "type": "string"
        },
        {
          "internalType": "uint256",
          "name": "credit",
          "type": "uint256"
        },
        {
          "internalType": "bool",
          "name": "isDeleted",
          "type": "bool"
        }
      ],
      "payable": false,
      "stateMutability": "view",
      "type": "function"
    },
    {
      "constant": true,
      "inputs": [],
      "name": "recordCount",
      "outputs": [
        {
          "internalType": "uint256",
          "name": "",
          "type": "uint256"
        }
      ],
      "payable": false,
      "stateMutability": "view",
      "type": "function"
    },
    {
      "constant": true,
      "inputs": [
        {
          "internalType": "uint256",
          "name": "",
          "type": "uint256"
        }
      ],
      "name": "records",
      "outputs": [
        {
          "internalType": "uint256",
          "name": "index",
          "type": "uint256"
        },
        {
          "internalType": "string",
          "name": "code",
          "type": "string"
        },
        {
          "internalType": "string",
          "name": "grade",
          "type": "string"
        },
        {
          "internalType": "string",
          "name": "student",
          "type": "string"
        },
        {
          "internalType": "bool",
          "name": "isHidden",
          "type": "bool"
        }
      ],
      "payable": false,
      "stateMutability": "view",
      "type": "function"
    },
    {
      "constant": false,
      "inputs": [
        {
          "internalType": "string",
          "name": "accountNo",
          "type": "string"
        },
        {
          "internalType": "string",
          "name": "name",
          "type": "string"
        }
      ],
      "name": "addAccount",
      "outputs": [],
      "payable": false,
      "stateMutability": "nonpayable",
      "type": "function"
    },
    {
      "constant": false,
      "inputs": [
        {
          "internalType": "string",
          "name": "code",
          "type": "string"
        },
        {
          "internalType": "string",
          "name": "description",
          "type": "string"
        },
        {
          "internalType": "string",
          "name": "moduleType",
          "type": "string"
        },
        {
          "internalType": "uint256",
          "name": "credit",
          "type": "uint256"
        }
      ],
      "name": "createModule",
      "outputs": [],
      "payable": false,
      "stateMutability": "nonpayable",
      "type": "function"
    },
    {
      "constant": false,
      "inputs": [
        {
          "internalType": "string",
          "name": "code",
          "type": "string"
        }
      ],
      "name": "deleteModule",
      "outputs": [],
      "payable": false,
      "stateMutability": "nonpayable",
      "type": "function"
    },
    {
      "constant": false,
      "inputs": [
        {
          "internalType": "string",
          "name": "code",
          "type": "string"
        },
        {
          "internalType": "string",
          "name": "grade",
          "type": "string"
        },
        {
          "internalType": "string",
          "name": "student",
          "type": "string"
        }
      ],
      "name": "createRecord",
      "outputs": [],
      "payable": false,
      "stateMutability": "nonpayable",
      "type": "function"
    },
    {
      "constant": false,
      "inputs": [
        {
          "internalType": "uint256",
          "name": "index",
          "type": "uint256"
        }
      ],
      "name": "hideRecord",
      "outputs": [],
      "payable": false,
      "stateMutability": "nonpayable",
      "type": "function"
    }
  ],
  "bytecode": "0x6080604052600080556000600155600060025534801561001e57600080fd5b50611a888061002e6000396000f3fe608060405234801561001057600080fd5b50600436106100cf5760003560e01c80638d3244e91161008c578063b2a2b30211610066578063b2a2b30214610936578063b8e81da514610a6a578063f2a40db814610a88578063facff5d214610b9b576100cf565b80638d3244e9146106f7578063900407bc14610725578063b07cb02e14610743576100cf565b806316e3d5ff146100d4578063334f7ac5146101a357806334461067146101c15780634479a70f146103525780635f3bc387146104a457806381b2248a1461055f575b600080fd5b61018d600480360360208110156100ea57600080fd5b810190808035906020019064010000000081111561010757600080fd5b82018360208201111561011957600080fd5b8035906020019184600183028401116401000000008311171561013b57600080fd5b91908080601f016020809104026020016040519081016040528093929190818152602001838380828437600081840152601f19601f820116905080830192505050505050509192919290505050610d84565b6040518082815260200191505060405180910390f35b6101ab610db2565b6040518082815260200191505060405180910390f35b6101ed600480360360208110156101d757600080fd5b8101908080359060200190929190505050610db8565b6040518086815260200180602001806020018060200185151515158152602001848103845288818151815260200191508051906020019080838360005b8381101561024557808201518184015260208101905061022a565b50505050905090810190601f1680156102725780820380516001836020036101000a031916815260200191505b50848103835287818151815260200191508051906020019080838360005b838110156102ab578082015181840152602081019050610290565b50505050905090810190601f1680156102d85780820380516001836020036101000a031916815260200191505b50848103825286818151815260200191508051906020019080838360005b838110156103115780820151818401526020810190506102f6565b50505050905090810190601f16801561033e5780820380516001836020036101000a031916815260200191505b509850505050505050505060405180910390f35b6104a26004803603604081101561036857600080fd5b810190808035906020019064010000000081111561038557600080fd5b82018360208201111561039757600080fd5b803590602001918460018302840111640100000000831117156103b957600080fd5b91908080601f016020809104026020016040519081016040528093929190818152602001838380828437600081840152601f19601f8201169050808301925050505050505091929192908035906020019064010000000081111561041c57600080fd5b82018360208201111561042e57600080fd5b8035906020019184600183028401116401000000008311171561045057600080fd5b91908080601f016020809104026020016040519081016040528093929190818152602001838380828437600081840152601f19601f820116905080830192505050505050509192919290505050610fc3565b005b61055d600480360360208110156104ba57600080fd5b81019080803590602001906401000000008111156104d757600080fd5b8201836020820111156104e957600080fd5b8035906020019184600183028401116401000000008311171561050b57600080fd5b91908080601f016020809104026020016040519081016040528093929190818152602001838380828437600081840152601f19601f8201169050808301925050505050505091929192905050506110be565b005b61058b6004803603602081101561057557600080fd5b810190808035906020019092919050505061115f565b6040518087815260200180602001806020018060200186815260200185151515158152602001848103845289818151815260200191508051906020019080838360005b838110156105e95780820151818401526020810190506105ce565b50505050905090810190601f1680156106165780820380516001836020036101000a031916815260200191505b50848103835288818151815260200191508051906020019080838360005b8381101561064f578082015181840152602081019050610634565b50505050905090810190601f16801561067c5780820380516001836020036101000a031916815260200191505b50848103825287818151815260200191508051906020019080838360005b838110156106b557808201518184015260208101905061069a565b50505050905090810190601f1680156106e25780820380516001836020036101000a031916815260200191505b50995050505050505050505060405180910390f35b6107236004803603602081101561070d57600080fd5b8101908080359060200190929190505050611370565b005b61072d6113c5565b6040518082815260200191505060405180910390f35b6109346004803603608081101561075957600080fd5b810190808035906020019064010000000081111561077657600080fd5b82018360208201111561078857600080fd5b803590602001918460018302840111640100000000831117156107aa57600080fd5b91908080601f016020809104026020016040519081016040528093929190818152602001838380828437600081840152601f19601f8201169050808301925050505050505091929192908035906020019064010000000081111561080d57600080fd5b82018360208201111561081f57600080fd5b8035906020019184600183028401116401000000008311171561084157600080fd5b91908080601f016020809104026020016040519081016040528093929190818152602001838380828437600081840152601f19601f820116905080830192505050505050509192919290803590602001906401000000008111156108a457600080fd5b8201836020820111156108b657600080fd5b803590602001918460018302840111640100000000831117156108d857600080fd5b91908080601f016020809104026020016040519081016040528093929190818152602001838380828437600081840152601f19601f820116905080830192505050505050509192919290803590602001909291905050506113cb565b005b6109ef6004803603602081101561094c57600080fd5b810190808035906020019064010000000081111561096957600080fd5b82018360208201111561097b57600080fd5b8035906020019184600183028401116401000000008311171561099d57600080fd5b91908080601f016020809104026020016040519081016040528093929190818152602001838380828437600081840152601f19601f820116905080830192505050505050509192919290505050611526565b6040518080602001828103825283818151815260200191508051906020019080838360005b83811015610a2f578082015181840152602081019050610a14565b50505050905090810190601f168015610a5c5780820380516001836020036101000a031916815260200191505b509250505060405180910390f35b610a726115ec565b6040518082815260200191505060405180910390f35b610ab460048036036020811015610a9e57600080fd5b81019080803590602001909291905050506115f2565b604051808060200180602001838103835285818151815260200191508051906020019080838360005b83811015610af8578082015181840152602081019050610add565b50505050905090810190601f168015610b255780820380516001836020036101000a031916815260200191505b50838103825284818151815260200191508051906020019080838360005b83811015610b5e578082015181840152602081019050610b43565b50505050905090810190601f168015610b8b5780820380516001836020036101000a031916815260200191505b5094505050505060405180910390f35b610d8260048036036060811015610bb157600080fd5b8101908080359060200190640100000000811115610bce57600080fd5b820183602082011115610be057600080fd5b80359060200191846001830284011164010000000083111715610c0257600080fd5b91908080601f016020809104026020016040519081016040528093929190818152602001838380828437600081840152601f19601f82011690508083019250505050505050919291929080359060200190640100000000811115610c6557600080fd5b820183602082011115610c7757600080fd5b80359060200191846001830284011164010000000083111715610c9957600080fd5b91908080601f016020809104026020016040519081016040528093929190818152602001838380828437600081840152601f19601f82011690508083019250505050505050919291929080359060200190640100000000811115610cfc57600080fd5b820183602082011115610d0e57600080fd5b80359060200191846001830284011164010000000083111715610d3057600080fd5b91908080601f016020809104026020016040519081016040528093929190818152602001838380828437600081840152601f19601f820116905080830192505050505050509192919290505050611746565b005b6005818051602081018201805184825260208301602085012081835280955050505050506000915090505481565b60005481565b6007602052806000526040600020600091509050806000015490806001018054600181600116156101000203166002900480601f016020809104026020016040519081016040528092919081815260200182805460018160011615610100020316600290048015610e6a5780601f10610e3f57610100808354040283529160200191610e6a565b820191906000526020600020905b815481529060010190602001808311610e4d57829003601f168201915b505050505090806002018054600181600116156101000203166002900480601f016020809104026020016040519081016040528092919081815260200182805460018160011615610100020316600290048015610f085780601f10610edd57610100808354040283529160200191610f08565b820191906000526020600020905b815481529060010190602001808311610eeb57829003601f168201915b505050505090806003018054600181600116156101000203166002900480601f016020809104026020016040519081016040528092919081815260200182805460018160011615610100020316600290048015610fa65780601f10610f7b57610100808354040283529160200191610fa6565b820191906000526020600020905b815481529060010190602001808311610f8957829003601f168201915b5050505050908060040160009054906101000a900460ff16905085565b600260008154809291906001019190505550604051806040016040528083815260200182815250600360006002548152602001908152602001600020600082015181600001908051906020019061101b92919061192e565b50602082015181600101908051906020019061103892919061192e565b50905050806004836040518082805190602001908083835b602083106110735780518252602082019150602081019050602083039250611050565b6001836020036101000a038019825116818451168082178552505050505050905001915050908152602001604051809103902090805190602001906110b99291906119ae565b505050565b60006005826040518082805190602001908083835b602083106110f657805182526020820191506020810190506020830392506110d3565b6001836020036101000a038019825116818451168082178552505050505050905001915050908152602001604051809103902054905060016006600083815260200190815260200160002060050160006101000a81548160ff0219169083151502179055505050565b6006602052806000526040600020600091509050806000015490806001018054600181600116156101000203166002900480601f0160208091040260200160405190810160405280929190818152602001828054600181600116156101000203166002900480156112115780601f106111e657610100808354040283529160200191611211565b820191906000526020600020905b8154815290600101906020018083116111f457829003601f168201915b505050505090806002018054600181600116156101000203166002900480601f0160208091040260200160405190810160405280929190818152602001828054600181600116156101000203166002900480156112af5780601f10611284576101008083540402835291602001916112af565b820191906000526020600020905b81548152906001019060200180831161129257829003601f168201915b505050505090806003018054600181600116156101000203166002900480601f01602080910402602001604051908101604052809291908181526020018280546001816001161561010002031660029004801561134d5780601f106113225761010080835404028352916020019161134d565b820191906000526020600020905b81548152906001019060200180831161133057829003601f168201915b5050505050908060040154908060050160009054906101000a900460ff16905086565b6007600082815260200190815260200160002060040160009054906101000a900460ff16156007600083815260200190815260200160002060040160006101000a81548160ff02191690831515021790555050565b60015481565b60008081548092919060010191905055506000546005856040518082805190602001908083835b6020831061141557805182526020820191506020810190506020830392506113f2565b6001836020036101000a0380198251168184511680821785525050505050509050019150509081526020016040518091039020819055506040518060c0016040528060005481526020018581526020018481526020018381526020018281526020016000151581525060066000805481526020019081526020016000206000820151816000015560208201518160010190805190602001906114b892919061192e565b5060408201518160020190805190602001906114d592919061192e565b5060608201518160030190805190602001906114f292919061192e565b506080820151816004015560a08201518160050160006101000a81548160ff02191690831515021790555090505050505050565b6004818051602081018201805184825260208301602085012081835280955050505050506000915090508054600181600116156101000203166002900480601f0160208091040260200160405190810160405280929190818152602001828054600181600116156101000203166002900480156115e45780601f106115b9576101008083540402835291602001916115e4565b820191906000526020600020905b8154815290600101906020018083116115c757829003601f168201915b505050505081565b60025481565b6003602052806000526040600020600091509050806000018054600181600116156101000203166002900480601f01602080910402602001604051908101604052809291908181526020018280546001816001161561010002031660029004801561169e5780601f106116735761010080835404028352916020019161169e565b820191906000526020600020905b81548152906001019060200180831161168157829003601f168201915b505050505090806001018054600181600116156101000203166002900480601f01602080910402602001604051908101604052809291908181526020018280546001816001161561010002031660029004801561173c5780601f106117115761010080835404028352916020019161173c565b820191906000526020600020905b81548152906001019060200180831161171f57829003601f168201915b5050505050905082565b60006005846040518082805190602001908083835b6020831061177e578051825260208201915060208101905060208303925061175b565b6001836020036101000a0380198251168184511680821785525050505050509050019150509081526020016040518091039020549050600015156006600083815260200190815260200160002060050160009054906101000a900460ff16151514611851576040517f08c379a00000000000000000000000000000000000000000000000000000000081526004018080602001828103825260158152602001807f6d6f64756c6520646f6573206e6f74206578697374000000000000000000000081525060200191505060405180910390fd5b6001600081548092919060010191905055506040518060a001604052806001548152602001858152602001848152602001838152602001600015158152506007600060015481526020019081526020016000206000820151816000015560208201518160010190805190602001906118ca92919061192e565b5060408201518160020190805190602001906118e792919061192e565b50606082015181600301908051906020019061190492919061192e565b5060808201518160040160006101000a81548160ff02191690831515021790555090505050505050565b828054600181600116156101000203166002900490600052602060002090601f016020900481019282601f1061196f57805160ff191683800117855561199d565b8280016001018555821561199d579182015b8281111561199c578251825591602001919060010190611981565b5b5090506119aa9190611a2e565b5090565b828054600181600116156101000203166002900490600052602060002090601f016020900481019282601f106119ef57805160ff1916838001178555611a1d565b82800160010185558215611a1d579182015b82811115611a1c578251825591602001919060010190611a01565b5b509050611a2a9190611a2e565b5090565b611a5091905b80821115611a4c576000816000905550600101611a34565b5090565b9056fea265627a7a72315820353b55ba96539f66b64f7ee8bd66afb7ef2d5d9c1f043d29b227af458caacdad64736f6c63430005100032",
  "source": "pragma solidity >=0.4.21 <0.7.0;\r\n\r\ncontract mainContract{\r\n    uint public moduleCount = 0;\r\n    uint public recordCount = 0;\r\n    uint public acCount = 0;\r\n\r\n    struct Module{\r\n        uint index;\r\n        string code;\r\n        string description;\r\n        string moduleType;\r\n        uint credit;\r\n        bool isDeleted;\r\n    }\r\n\r\n    struct Record{\r\n        uint index;\r\n        string code;\r\n        string grade;\r\n        string student;\r\n        bool isHidden;\r\n    }\r\n\r\n    struct Account{\r\n        string accountNo;\r\n        string name;\r\n    }\r\n\r\n    mapping (uint => Account) public accounts;\r\n    mapping (string => string) public accountNoToName;\r\n\r\n    //Allow us to get Module from code\r\n    mapping (string => uint) public codeToIndex;\r\n    mapping (uint => Module) public modules;\r\n\r\n    mapping(uint => Record) public records;\r\n\r\n    function addAccount(string memory accountNo, string memory name) public{\r\n        acCount++;\r\n        accounts[acCount] = Account(accountNo, name);\r\n        accountNoToName[accountNo] = name;\r\n    }\r\n\r\n    function createModule(string memory code, string memory description, string memory moduleType, uint credit) public{\r\n        moduleCount++;\r\n        codeToIndex[code] = moduleCount;\r\n        modules[moduleCount] = Module(moduleCount, code, description, moduleType, credit, false);\r\n    }\r\n\r\n    function deleteModule(string memory code) public{\r\n        uint index = codeToIndex[code];\r\n        modules[index].isDeleted = true;\r\n    }\r\n\r\n    function createRecord(string memory code, string memory grade, string memory student) public{\r\n        uint index = codeToIndex[code];\r\n        require(modules[index].isDeleted == false, \"module does not exist\");\r\n        recordCount++;\r\n        records[recordCount] = Record(recordCount, code, grade, student, false);\r\n    }\r\n\r\n    function hideRecord(uint index) public{\r\n        records[index].isHidden = !records[index].isHidden;\r\n    }\r\n}",
  "sourcePath": "C:/Users/EdCyberGamer/desktop/certapp/contracts/mainContract.sol",
  "compiler": {
    "name": "solc",
    "version": "0.5.16+commit.9c3226ce.Emscripten.clang"
  },
  "schemaVersion": "3.0.22",
  "updatedAt": "2020-05-13T10:17:12.761Z",
  "networkType": "ethereum",
  "devdoc": {
    "methods": {}
  },
  "userdoc": {
    "methods": {}
  }
}