{
  "contractName": "mainContract",
  "abi": [
    {
      "constant": true,
      "inputs": [],
      "name": "moduleCount",
      "outputs": [
        {
          "name": "",
          "type": "uint256"
        }
      ],
      "payable": false,
      "stateMutability": "view",
      "type": "function",
      "signature": "0x334f7ac5"
    },
    {
      "constant": true,
      "inputs": [
        {
          "name": "",
          "type": "uint256"
        }
      ],
      "name": "records",
      "outputs": [
        {
          "name": "index",
          "type": "uint256"
        },
        {
          "name": "code",
          "type": "string"
        },
        {
          "name": "grade",
          "type": "string"
        },
        {
          "name": "student",
          "type": "string"
        },
        {
          "name": "isHidden",
          "type": "bool"
        }
      ],
      "payable": false,
      "stateMutability": "view",
      "type": "function",
      "signature": "0x34461067"
    },
    {
      "constant": true,
      "inputs": [
        {
          "name": "",
          "type": "uint256"
        }
      ],
      "name": "modules",
      "outputs": [
        {
          "name": "index",
          "type": "uint256"
        },
        {
          "name": "code",
          "type": "string"
        },
        {
          "name": "description",
          "type": "string"
        },
        {
          "name": "moduleType",
          "type": "string"
        },
        {
          "name": "credit",
          "type": "uint256"
        },
        {
          "name": "isDeleted",
          "type": "bool"
        }
      ],
      "payable": false,
      "stateMutability": "view",
      "type": "function",
      "signature": "0x81b2248a"
    },
    {
      "constant": true,
      "inputs": [],
      "name": "recordCount",
      "outputs": [
        {
          "name": "",
          "type": "uint256"
        }
      ],
      "payable": false,
      "stateMutability": "view",
      "type": "function",
      "signature": "0x900407bc"
    },
    {
      "inputs": [],
      "payable": false,
      "stateMutability": "nonpayable",
      "type": "constructor",
      "signature": "constructor"
    },
    {
      "constant": false,
      "inputs": [
        {
          "name": "code",
          "type": "string"
        },
        {
          "name": "description",
          "type": "string"
        },
        {
          "name": "moduleType",
          "type": "string"
        },
        {
          "name": "credit",
          "type": "uint256"
        }
      ],
      "name": "createModule",
      "outputs": [],
      "payable": false,
      "stateMutability": "nonpayable",
      "type": "function",
      "signature": "0xb07cb02e"
    },
    {
      "constant": false,
      "inputs": [
        {
          "name": "code",
          "type": "string"
        }
      ],
      "name": "deleteModule",
      "outputs": [],
      "payable": false,
      "stateMutability": "nonpayable",
      "type": "function",
      "signature": "0x5f3bc387"
    },
    {
      "constant": false,
      "inputs": [
        {
          "name": "code",
          "type": "string"
        },
        {
          "name": "grade",
          "type": "string"
        },
        {
          "name": "student",
          "type": "string"
        }
      ],
      "name": "createRecord",
      "outputs": [],
      "payable": false,
      "stateMutability": "nonpayable",
      "type": "function",
      "signature": "0xfacff5d2"
    },
    {
      "constant": false,
      "inputs": [
        {
          "name": "index",
          "type": "uint256"
        }
      ],
      "name": "hideRecord",
      "outputs": [],
      "payable": false,
      "stateMutability": "nonpayable",
      "type": "function",
      "signature": "0x8d3244e9"
    }
  ],
  "bytecode": "0x60806040526000805560006001553480156200001a57600080fd5b50620000d86040805190810160405280600681526020017f49543235323900000000000000000000000000000000000000000000000000008152506040805190810160405280601b81526020017f4461746162617365206d616e6167656d656e742073797374656d7300000000008152506040805190810160405280600281526020017f434d000000000000000000000000000000000000000000000000000000000000815250600462000256640100000000026401000000009004565b620001956040805190810160405280600681526020017f49543239353100000000000000000000000000000000000000000000000000008152506040805190810160405280601081526020017f42657374204d6f64756c652065766572000000000000000000000000000000008152506040805190810160405280600281526020017f434d000000000000000000000000000000000000000000000000000000000000815250600462000256640100000000026401000000009004565b620002506040805190810160405280600681526020017f49543235323900000000000000000000000000000000000000000000000000008152506040805190810160405280600181526020017f41000000000000000000000000000000000000000000000000000000000000008152506040805190810160405280600a81526020017f3031323334353637383900000000000000000000000000000000000000000000815250620003bc640100000000026401000000009004565b62000661565b60008081548092919060010191905055506000546002856040518082805190602001908083835b602083101515620002a457805182526020820191506020810190506020830392506200027d565b6001836020036101000a03801982511681845116808217855250505050505090500191505090815260200160405180910390208190555060c06040519081016040528060005481526020018581526020018481526020018381526020018281526020016000151581525060036000805481526020019081526020016000206000820151816000015560208201518160010190805190602001906200034a929190620005b2565b50604082015181600201908051906020019062000369929190620005b2565b50606082015181600301908051906020019062000388929190620005b2565b506080820151816004015560a08201518160050160006101000a81548160ff02191690831515021790555090505050505050565b60006002846040518082805190602001908083835b602083101515620003f85780518252602082019150602081019050602083039250620003d1565b6001836020036101000a0380198251168184511680821785525050505050509050019150509081526020016040518091039020549050600015156003600083815260200190815260200160002060050160009054906101000a900460ff161515141515620004ce576040517f08c379a00000000000000000000000000000000000000000000000000000000081526004018080602001828103825260158152602001807f6d6f64756c6520646f6573206e6f74206578697374000000000000000000000081525060200191505060405180910390fd5b60016000815480929190600101919050555060a0604051908101604052806001548152602001858152602001848152602001838152602001600015158152506004600060015481526020019081526020016000206000820151816000015560208201518160010190805190602001906200054a929190620005b2565b50604082015181600201908051906020019062000569929190620005b2565b50606082015181600301908051906020019062000588929190620005b2565b5060808201518160040160006101000a81548160ff02191690831515021790555090505050505050565b828054600181600116156101000203166002900490600052602060002090601f016020900481019282601f10620005f557805160ff191683800117855562000626565b8280016001018555821562000626579182015b828111156200062557825182559160200191906001019062000608565b5b50905062000635919062000639565b5090565b6200065e91905b808211156200065a57600081600090555060010162000640565b5090565b90565b61126180620006716000396000f3fe60806040526004361061008e576000357c0100000000000000000000000000000000000000000000000000000000900463ffffffff168063334f7ac51461009357806334461067146100be5780635f3bc3871461025c57806381b2248a146103245780638d3244e9146104c9578063900407bc14610504578063b07cb02e1461052f578063facff5d21461072f575b600080fd5b34801561009f57600080fd5b506100a8610925565b6040518082815260200191505060405180910390f35b3480156100ca57600080fd5b506100f7600480360360208110156100e157600080fd5b810190808035906020019092919050505061092b565b6040518086815260200180602001806020018060200185151515158152602001848103845288818151815260200191508051906020019080838360005b8381101561014f578082015181840152602081019050610134565b50505050905090810190601f16801561017c5780820380516001836020036101000a031916815260200191505b50848103835287818151815260200191508051906020019080838360005b838110156101b557808201518184015260208101905061019a565b50505050905090810190601f1680156101e25780820380516001836020036101000a031916815260200191505b50848103825286818151815260200191508051906020019080838360005b8381101561021b578082015181840152602081019050610200565b50505050905090810190601f1680156102485780820380516001836020036101000a031916815260200191505b509850505050505050505060405180910390f35b34801561026857600080fd5b506103226004803603602081101561027f57600080fd5b810190808035906020019064010000000081111561029c57600080fd5b8201836020820111156102ae57600080fd5b803590602001918460018302840111640100000000831117156102d057600080fd5b91908080601f016020809104026020016040519081016040528093929190818152602001838380828437600081840152601f19601f820116905080830192505050505050509192919290505050610b36565b005b34801561033057600080fd5b5061035d6004803603602081101561034757600080fd5b8101908080359060200190929190505050610bd9565b6040518087815260200180602001806020018060200186815260200185151515158152602001848103845289818151815260200191508051906020019080838360005b838110156103bb5780820151818401526020810190506103a0565b50505050905090810190601f1680156103e85780820380516001836020036101000a031916815260200191505b50848103835288818151815260200191508051906020019080838360005b83811015610421578082015181840152602081019050610406565b50505050905090810190601f16801561044e5780820380516001836020036101000a031916815260200191505b50848103825287818151815260200191508051906020019080838360005b8381101561048757808201518184015260208101905061046c565b50505050905090810190601f1680156104b45780820380516001836020036101000a031916815260200191505b50995050505050505050505060405180910390f35b3480156104d557600080fd5b50610502600480360360208110156104ec57600080fd5b8101908080359060200190929190505050610dea565b005b34801561051057600080fd5b50610519610e3f565b6040518082815260200191505060405180910390f35b34801561053b57600080fd5b5061072d6004803603608081101561055257600080fd5b810190808035906020019064010000000081111561056f57600080fd5b82018360208201111561058157600080fd5b803590602001918460018302840111640100000000831117156105a357600080fd5b91908080601f016020809104026020016040519081016040528093929190818152602001838380828437600081840152601f19601f8201169050808301925050505050505091929192908035906020019064010000000081111561060657600080fd5b82018360208201111561061857600080fd5b8035906020019184600183028401116401000000008311171561063a57600080fd5b91908080601f016020809104026020016040519081016040528093929190818152602001838380828437600081840152601f19601f8201169050808301925050505050505091929192908035906020019064010000000081111561069d57600080fd5b8201836020820111156106af57600080fd5b803590602001918460018302840111640100000000831117156106d157600080fd5b91908080601f016020809104026020016040519081016040528093929190818152602001838380828437600081840152601f19601f82011690508083019250505050505050919291929080359060200190929190505050610e45565b005b34801561073b57600080fd5b506109236004803603606081101561075257600080fd5b810190808035906020019064010000000081111561076f57600080fd5b82018360208201111561078157600080fd5b803590602001918460018302840111640100000000831117156107a357600080fd5b91908080601f016020809104026020016040519081016040528093929190818152602001838380828437600081840152601f19601f8201169050808301925050505050505091929192908035906020019064010000000081111561080657600080fd5b82018360208201111561081857600080fd5b8035906020019184600183028401116401000000008311171561083a57600080fd5b91908080601f016020809104026020016040519081016040528093929190818152602001838380828437600081840152601f19601f8201169050808301925050505050505091929192908035906020019064010000000081111561089d57600080fd5b8201836020820111156108af57600080fd5b803590602001918460018302840111640100000000831117156108d157600080fd5b91908080601f016020809104026020016040519081016040528093929190818152602001838380828437600081840152601f19601f820116905080830192505050505050509192919290505050610fa3565b005b60005481565b6004602052806000526040600020600091509050806000015490806001018054600181600116156101000203166002900480601f0160208091040260200160405190810160405280929190818152602001828054600181600116156101000203166002900480156109dd5780601f106109b2576101008083540402835291602001916109dd565b820191906000526020600020905b8154815290600101906020018083116109c057829003601f168201915b505050505090806002018054600181600116156101000203166002900480601f016020809104026020016040519081016040528092919081815260200182805460018160011615610100020316600290048015610a7b5780601f10610a5057610100808354040283529160200191610a7b565b820191906000526020600020905b815481529060010190602001808311610a5e57829003601f168201915b505050505090806003018054600181600116156101000203166002900480601f016020809104026020016040519081016040528092919081815260200182805460018160011615610100020316600290048015610b195780601f10610aee57610100808354040283529160200191610b19565b820191906000526020600020905b815481529060010190602001808311610afc57829003601f168201915b5050505050908060040160009054906101000a900460ff16905085565b60006002826040518082805190602001908083835b602083101515610b705780518252602082019150602081019050602083039250610b4b565b6001836020036101000a038019825116818451168082178552505050505050905001915050908152602001604051809103902054905060016003600083815260200190815260200160002060050160006101000a81548160ff0219169083151502179055505050565b6003602052806000526040600020600091509050806000015490806001018054600181600116156101000203166002900480601f016020809104026020016040519081016040528092919081815260200182805460018160011615610100020316600290048015610c8b5780601f10610c6057610100808354040283529160200191610c8b565b820191906000526020600020905b815481529060010190602001808311610c6e57829003601f168201915b505050505090806002018054600181600116156101000203166002900480601f016020809104026020016040519081016040528092919081815260200182805460018160011615610100020316600290048015610d295780601f10610cfe57610100808354040283529160200191610d29565b820191906000526020600020905b815481529060010190602001808311610d0c57829003601f168201915b505050505090806003018054600181600116156101000203166002900480601f016020809104026020016040519081016040528092919081815260200182805460018160011615610100020316600290048015610dc75780601f10610d9c57610100808354040283529160200191610dc7565b820191906000526020600020905b815481529060010190602001808311610daa57829003601f168201915b5050505050908060040154908060050160009054906101000a900460ff16905086565b6004600082815260200190815260200160002060040160009054906101000a900460ff16156004600083815260200190815260200160002060040160006101000a81548160ff02191690831515021790555050565b60015481565b60008081548092919060010191905055506000546002856040518082805190602001908083835b602083101515610e915780518252602082019150602081019050602083039250610e6c565b6001836020036101000a03801982511681845116808217855250505050505090500191505090815260200160405180910390208190555060c0604051908101604052806000548152602001858152602001848152602001838152602001828152602001600015158152506003600080548152602001908152602001600020600082015181600001556020820151816001019080519060200190610f35929190611190565b506040820151816002019080519060200190610f52929190611190565b506060820151816003019080519060200190610f6f929190611190565b506080820151816004015560a08201518160050160006101000a81548160ff02191690831515021790555090505050505050565b60006002846040518082805190602001908083835b602083101515610fdd5780518252602082019150602081019050602083039250610fb8565b6001836020036101000a0380198251168184511680821785525050505050509050019150509081526020016040518091039020549050600015156003600083815260200190815260200160002060050160009054906101000a900460ff1615151415156110b2576040517f08c379a00000000000000000000000000000000000000000000000000000000081526004018080602001828103825260158152602001807f6d6f64756c6520646f6573206e6f74206578697374000000000000000000000081525060200191505060405180910390fd5b60016000815480929190600101919050555060a06040519081016040528060015481526020018581526020018481526020018381526020016000151581525060046000600154815260200190815260200160002060008201518160000155602082015181600101908051906020019061112c929190611190565b506040820151816002019080519060200190611149929190611190565b506060820151816003019080519060200190611166929190611190565b5060808201518160040160006101000a81548160ff02191690831515021790555090505050505050565b828054600181600116156101000203166002900490600052602060002090601f016020900481019282601f106111d157805160ff19168380011785556111ff565b828001600101855582156111ff579182015b828111156111fe5782518255916020019190600101906111e3565b5b50905061120c9190611210565b5090565b61123291905b8082111561122e576000816000905550600101611216565b5090565b9056fea165627a7a7230582003aed84ee0fde56a4bbcf387d31d3b08f8443589ab47dc35a4d2d7ad5d4568600029",
  "source": "pragma solidity >=0.4.21 <0.7.0;\r\n\r\ncontract mainContract{\r\n    uint public moduleCount = 0;\r\n    uint public recordCount = 0;\r\n\r\n    struct Module{\r\n        uint index;\r\n        string code;\r\n        string description;\r\n        string moduleType;\r\n        uint credit;\r\n        bool isDeleted;\r\n    }\r\n\r\n    struct Record{\r\n        uint index;\r\n        string code;\r\n        string grade;\r\n        string student;\r\n        bool isHidden;\r\n    }\r\n\r\n    //Allow us to get Module from code\r\n    mapping (string => uint) codeToIndex;\r\n    mapping (uint => Module) public modules;\r\n\r\n    mapping(uint => Record) public records;\r\n\r\n    constructor() public{\r\n        createModule('IT2529', 'Database management systems', 'CM', 4);\r\n        createModule('IT2951', 'Best Module ever', 'CM', 4);\r\n        createRecord('IT2529', 'A', '0123456789');\r\n    }\r\n\r\n    function createModule(string memory code, string memory description, string memory moduleType, uint credit) public{\r\n        moduleCount++;\r\n        codeToIndex[code] = moduleCount;\r\n        modules[moduleCount] = Module(moduleCount, code, description, moduleType, credit, false);\r\n    }\r\n\r\n    function deleteModule(string memory code) public{\r\n        uint index = codeToIndex[code];\r\n        modules[index].isDeleted = true;\r\n    }\r\n\r\n    function createRecord(string memory code, string memory grade, string memory student) public{\r\n        uint index = codeToIndex[code];\r\n        require(modules[index].isDeleted == false, \"module does not exist\");\r\n        recordCount++;\r\n        records[recordCount] = Record(recordCount, code, grade, student, false);\r\n    }\r\n\r\n    function hideRecord(uint index) public{\r\n        records[index].isHidden = !records[index].isHidden;\r\n    }\r\n}",
  "sourcePath": "C:/Users/EdCyberGamer/desktop/certapp/contracts/mainContract.sol",
  "compiler": {
    "name": "solc",
    "version": "0.5.0+commit.1d4f565a.Emscripten.clang"
  },
  "schemaVersion": "3.0.2",
  "updatedAt": "2020-05-11T06:36:01.415Z",
  "devdoc": {
    "methods": {}
  },
  "userdoc": {
    "methods": {}
  }
}