{
  "contractName": "mainContract",
  "abi": [
    {
      "constant": true,
      "inputs": [],
      "name": "moduleCount",
      "outputs": [
        {
          "name": "",
          "type": "uint256"
        }
      ],
      "payable": false,
      "stateMutability": "view",
      "type": "function",
      "signature": "0x334f7ac5"
    },
    {
      "constant": true,
      "inputs": [
        {
          "name": "",
          "type": "uint256"
        }
      ],
      "name": "records",
      "outputs": [
        {
          "name": "index",
          "type": "uint256"
        },
        {
          "name": "code",
          "type": "string"
        },
        {
          "name": "grade",
          "type": "string"
        },
        {
          "name": "student",
          "type": "string"
        },
        {
          "name": "isHidden",
          "type": "bool"
        }
      ],
      "payable": false,
      "stateMutability": "view",
      "type": "function",
      "signature": "0x34461067"
    },
    {
      "constant": true,
      "inputs": [
        {
          "name": "",
          "type": "uint256"
        }
      ],
      "name": "modules",
      "outputs": [
        {
          "name": "index",
          "type": "uint256"
        },
        {
          "name": "code",
          "type": "string"
        },
        {
          "name": "description",
          "type": "string"
        },
        {
          "name": "moduleType",
          "type": "string"
        },
        {
          "name": "credit",
          "type": "uint256"
        },
        {
          "name": "isDeleted",
          "type": "bool"
        }
      ],
      "payable": false,
      "stateMutability": "view",
      "type": "function",
      "signature": "0x81b2248a"
    },
    {
      "constant": true,
      "inputs": [],
      "name": "recordCount",
      "outputs": [
        {
          "name": "",
          "type": "uint256"
        }
      ],
      "payable": false,
      "stateMutability": "view",
      "type": "function",
      "signature": "0x900407bc"
    },
    {
      "constant": true,
      "inputs": [],
      "name": "acCount",
      "outputs": [
        {
          "name": "",
          "type": "uint256"
        }
      ],
      "payable": false,
      "stateMutability": "view",
      "type": "function",
      "signature": "0xb8e81da5"
    },
    {
      "constant": true,
      "inputs": [
        {
          "name": "",
          "type": "uint256"
        }
      ],
      "name": "accounts",
      "outputs": [
        {
          "name": "accountNo",
          "type": "string"
        },
        {
          "name": "name",
          "type": "string"
        }
      ],
      "payable": false,
      "stateMutability": "view",
      "type": "function",
      "signature": "0xf2a40db8"
    },
    {
      "inputs": [],
      "payable": false,
      "stateMutability": "nonpayable",
      "type": "constructor",
      "signature": "constructor"
    },
    {
      "constant": false,
      "inputs": [
        {
          "name": "accountNo",
          "type": "string"
        },
        {
          "name": "name",
          "type": "string"
        }
      ],
      "name": "addAccount",
      "outputs": [],
      "payable": false,
      "stateMutability": "nonpayable",
      "type": "function",
      "signature": "0x4479a70f"
    },
    {
      "constant": false,
      "inputs": [
        {
          "name": "code",
          "type": "string"
        },
        {
          "name": "description",
          "type": "string"
        },
        {
          "name": "moduleType",
          "type": "string"
        },
        {
          "name": "credit",
          "type": "uint256"
        }
      ],
      "name": "createModule",
      "outputs": [],
      "payable": false,
      "stateMutability": "nonpayable",
      "type": "function",
      "signature": "0xb07cb02e"
    },
    {
      "constant": false,
      "inputs": [
        {
          "name": "code",
          "type": "string"
        }
      ],
      "name": "deleteModule",
      "outputs": [],
      "payable": false,
      "stateMutability": "nonpayable",
      "type": "function",
      "signature": "0x5f3bc387"
    },
    {
      "constant": false,
      "inputs": [
        {
          "name": "code",
          "type": "string"
        },
        {
          "name": "grade",
          "type": "string"
        },
        {
          "name": "student",
          "type": "string"
        }
      ],
      "name": "createRecord",
      "outputs": [],
      "payable": false,
      "stateMutability": "nonpayable",
      "type": "function",
      "signature": "0xfacff5d2"
    },
    {
      "constant": false,
      "inputs": [
        {
          "name": "index",
          "type": "uint256"
        }
      ],
      "name": "hideRecord",
      "outputs": [],
      "payable": false,
      "stateMutability": "nonpayable",
      "type": "function",
      "signature": "0x8d3244e9"
    }
  ],
  "bytecode": "0x608060405260008055600060015560006002553480156200001f57600080fd5b50620000dd6040805190810160405280600681526020017f49543235323900000000000000000000000000000000000000000000000000008152506040805190810160405280601b81526020017f4461746162617365206d616e6167656d656e742073797374656d7300000000008152506040805190810160405280600281526020017f434d00000000000000000000000000000000000000000000000000000000000081525060046200025b640100000000026401000000009004565b6200019a6040805190810160405280600681526020017f49543239353100000000000000000000000000000000000000000000000000008152506040805190810160405280601081526020017f42657374204d6f64756c652065766572000000000000000000000000000000008152506040805190810160405280600281526020017f434d00000000000000000000000000000000000000000000000000000000000081525060046200025b640100000000026401000000009004565b620002556040805190810160405280600681526020017f49543235323900000000000000000000000000000000000000000000000000008152506040805190810160405280600181526020017f41000000000000000000000000000000000000000000000000000000000000008152506040805190810160405280600a81526020017f3031323334353637383900000000000000000000000000000000000000000000815250620003c1640100000000026401000000009004565b62000666565b60008081548092919060010191905055506000546004856040518082805190602001908083835b602083101515620002a9578051825260208201915060208101905060208303925062000282565b6001836020036101000a03801982511681845116808217855250505050505090500191505090815260200160405180910390208190555060c06040519081016040528060005481526020018581526020018481526020018381526020018281526020016000151581525060056000805481526020019081526020016000206000820151816000015560208201518160010190805190602001906200034f929190620005b7565b5060408201518160020190805190602001906200036e929190620005b7565b5060608201518160030190805190602001906200038d929190620005b7565b506080820151816004015560a08201518160050160006101000a81548160ff02191690831515021790555090505050505050565b60006004846040518082805190602001908083835b602083101515620003fd5780518252602082019150602081019050602083039250620003d6565b6001836020036101000a0380198251168184511680821785525050505050509050019150509081526020016040518091039020549050600015156005600083815260200190815260200160002060050160009054906101000a900460ff161515141515620004d3576040517f08c379a00000000000000000000000000000000000000000000000000000000081526004018080602001828103825260158152602001807f6d6f64756c6520646f6573206e6f74206578697374000000000000000000000081525060200191505060405180910390fd5b60016000815480929190600101919050555060a0604051908101604052806001548152602001858152602001848152602001838152602001600015158152506006600060015481526020019081526020016000206000820151816000015560208201518160010190805190602001906200054f929190620005b7565b5060408201518160020190805190602001906200056e929190620005b7565b5060608201518160030190805190602001906200058d929190620005b7565b5060808201518160040160006101000a81548160ff02191690831515021790555090505050505050565b828054600181600116156101000203166002900490600052602060002090601f016020900481019282601f10620005fa57805160ff19168380011785556200062b565b828001600101855582156200062b579182015b828111156200062a5782518255916020019190600101906200060d565b5b5090506200063a91906200063e565b5090565b6200066391905b808211156200065f57600081600090555060010162000645565b5090565b90565b61170380620006766000396000f3fe6080604052600436106100af576000357c0100000000000000000000000000000000000000000000000000000000900463ffffffff168063334f7ac5146100b457806334461067146100df5780634479a70f1461027d5780635f3bc387146103dc57806381b2248a146104a45780638d3244e914610649578063900407bc14610684578063b07cb02e146106af578063b8e81da5146108af578063f2a40db8146108da578063facff5d2146109fa575b600080fd5b3480156100c057600080fd5b506100c9610bf0565b6040518082815260200191505060405180910390f35b3480156100eb57600080fd5b506101186004803603602081101561010257600080fd5b8101908080359060200190929190505050610bf6565b6040518086815260200180602001806020018060200185151515158152602001848103845288818151815260200191508051906020019080838360005b83811015610170578082015181840152602081019050610155565b50505050905090810190601f16801561019d5780820380516001836020036101000a031916815260200191505b50848103835287818151815260200191508051906020019080838360005b838110156101d65780820151818401526020810190506101bb565b50505050905090810190601f1680156102035780820380516001836020036101000a031916815260200191505b50848103825286818151815260200191508051906020019080838360005b8381101561023c578082015181840152602081019050610221565b50505050905090810190601f1680156102695780820380516001836020036101000a031916815260200191505b509850505050505050505060405180910390f35b34801561028957600080fd5b506103da600480360360408110156102a057600080fd5b81019080803590602001906401000000008111156102bd57600080fd5b8201836020820111156102cf57600080fd5b803590602001918460018302840111640100000000831117156102f157600080fd5b91908080601f016020809104026020016040519081016040528093929190818152602001838380828437600081840152601f19601f8201169050808301925050505050505091929192908035906020019064010000000081111561035457600080fd5b82018360208201111561036657600080fd5b8035906020019184600183028401116401000000008311171561038857600080fd5b91908080601f016020809104026020016040519081016040528093929190818152602001838380828437600081840152601f19601f820116905080830192505050505050509192919290505050610e01565b005b3480156103e857600080fd5b506104a2600480360360208110156103ff57600080fd5b810190808035906020019064010000000081111561041c57600080fd5b82018360208201111561042e57600080fd5b8035906020019184600183028401116401000000008311171561045057600080fd5b91908080601f016020809104026020016040519081016040528093929190818152602001838380828437600081840152601f19601f820116905080830192505050505050509192919290505050610e7e565b005b3480156104b057600080fd5b506104dd600480360360208110156104c757600080fd5b8101908080359060200190929190505050610f21565b6040518087815260200180602001806020018060200186815260200185151515158152602001848103845289818151815260200191508051906020019080838360005b8381101561053b578082015181840152602081019050610520565b50505050905090810190601f1680156105685780820380516001836020036101000a031916815260200191505b50848103835288818151815260200191508051906020019080838360005b838110156105a1578082015181840152602081019050610586565b50505050905090810190601f1680156105ce5780820380516001836020036101000a031916815260200191505b50848103825287818151815260200191508051906020019080838360005b838110156106075780820151818401526020810190506105ec565b50505050905090810190601f1680156106345780820380516001836020036101000a031916815260200191505b50995050505050505050505060405180910390f35b34801561065557600080fd5b506106826004803603602081101561066c57600080fd5b8101908080359060200190929190505050611132565b005b34801561069057600080fd5b50610699611187565b6040518082815260200191505060405180910390f35b3480156106bb57600080fd5b506108ad600480360360808110156106d257600080fd5b81019080803590602001906401000000008111156106ef57600080fd5b82018360208201111561070157600080fd5b8035906020019184600183028401116401000000008311171561072357600080fd5b91908080601f016020809104026020016040519081016040528093929190818152602001838380828437600081840152601f19601f8201169050808301925050505050505091929192908035906020019064010000000081111561078657600080fd5b82018360208201111561079857600080fd5b803590602001918460018302840111640100000000831117156107ba57600080fd5b91908080601f016020809104026020016040519081016040528093929190818152602001838380828437600081840152601f19601f8201169050808301925050505050505091929192908035906020019064010000000081111561081d57600080fd5b82018360208201111561082f57600080fd5b8035906020019184600183028401116401000000008311171561085157600080fd5b91908080601f016020809104026020016040519081016040528093929190818152602001838380828437600081840152601f19601f8201169050808301925050505050505091929192908035906020019092919050505061118d565b005b3480156108bb57600080fd5b506108c46112eb565b6040518082815260200191505060405180910390f35b3480156108e657600080fd5b50610913600480360360208110156108fd57600080fd5b81019080803590602001909291905050506112f1565b604051808060200180602001838103835285818151815260200191508051906020019080838360005b8381101561095757808201518184015260208101905061093c565b50505050905090810190601f1680156109845780820380516001836020036101000a031916815260200191505b50838103825284818151815260200191508051906020019080838360005b838110156109bd5780820151818401526020810190506109a2565b50505050905090810190601f1680156109ea5780820380516001836020036101000a031916815260200191505b5094505050505060405180910390f35b348015610a0657600080fd5b50610bee60048036036060811015610a1d57600080fd5b8101908080359060200190640100000000811115610a3a57600080fd5b820183602082011115610a4c57600080fd5b80359060200191846001830284011164010000000083111715610a6e57600080fd5b91908080601f016020809104026020016040519081016040528093929190818152602001838380828437600081840152601f19601f82011690508083019250505050505050919291929080359060200190640100000000811115610ad157600080fd5b820183602082011115610ae357600080fd5b80359060200191846001830284011164010000000083111715610b0557600080fd5b91908080601f016020809104026020016040519081016040528093929190818152602001838380828437600081840152601f19601f82011690508083019250505050505050919291929080359060200190640100000000811115610b6857600080fd5b820183602082011115610b7a57600080fd5b80359060200191846001830284011164010000000083111715610b9c57600080fd5b91908080601f016020809104026020016040519081016040528093929190818152602001838380828437600081840152601f19601f820116905080830192505050505050509192919290505050611445565b005b60005481565b6006602052806000526040600020600091509050806000015490806001018054600181600116156101000203166002900480601f016020809104026020016040519081016040528092919081815260200182805460018160011615610100020316600290048015610ca85780601f10610c7d57610100808354040283529160200191610ca8565b820191906000526020600020905b815481529060010190602001808311610c8b57829003601f168201915b505050505090806002018054600181600116156101000203166002900480601f016020809104026020016040519081016040528092919081815260200182805460018160011615610100020316600290048015610d465780601f10610d1b57610100808354040283529160200191610d46565b820191906000526020600020905b815481529060010190602001808311610d2957829003601f168201915b505050505090806003018054600181600116156101000203166002900480601f016020809104026020016040519081016040528092919081815260200182805460018160011615610100020316600290048015610de45780601f10610db957610100808354040283529160200191610de4565b820191906000526020600020905b815481529060010190602001808311610dc757829003601f168201915b5050505050908060040160009054906101000a900460ff16905085565b6002600081548092919060010191905055506040805190810160405280838152602001828152506003600060025481526020019081526020016000206000820151816000019080519060200190610e59929190611632565b506020820151816001019080519060200190610e76929190611632565b509050505050565b60006004826040518082805190602001908083835b602083101515610eb85780518252602082019150602081019050602083039250610e93565b6001836020036101000a038019825116818451168082178552505050505050905001915050908152602001604051809103902054905060016005600083815260200190815260200160002060050160006101000a81548160ff0219169083151502179055505050565b6005602052806000526040600020600091509050806000015490806001018054600181600116156101000203166002900480601f016020809104026020016040519081016040528092919081815260200182805460018160011615610100020316600290048015610fd35780601f10610fa857610100808354040283529160200191610fd3565b820191906000526020600020905b815481529060010190602001808311610fb657829003601f168201915b505050505090806002018054600181600116156101000203166002900480601f0160208091040260200160405190810160405280929190818152602001828054600181600116156101000203166002900480156110715780601f1061104657610100808354040283529160200191611071565b820191906000526020600020905b81548152906001019060200180831161105457829003601f168201915b505050505090806003018054600181600116156101000203166002900480601f01602080910402602001604051908101604052809291908181526020018280546001816001161561010002031660029004801561110f5780601f106110e45761010080835404028352916020019161110f565b820191906000526020600020905b8154815290600101906020018083116110f257829003601f168201915b5050505050908060040154908060050160009054906101000a900460ff16905086565b6006600082815260200190815260200160002060040160009054906101000a900460ff16156006600083815260200190815260200160002060040160006101000a81548160ff02191690831515021790555050565b60015481565b60008081548092919060010191905055506000546004856040518082805190602001908083835b6020831015156111d957805182526020820191506020810190506020830392506111b4565b6001836020036101000a03801982511681845116808217855250505050505090500191505090815260200160405180910390208190555060c060405190810160405280600054815260200185815260200184815260200183815260200182815260200160001515815250600560008054815260200190815260200160002060008201518160000155602082015181600101908051906020019061127d929190611632565b50604082015181600201908051906020019061129a929190611632565b5060608201518160030190805190602001906112b7929190611632565b506080820151816004015560a08201518160050160006101000a81548160ff02191690831515021790555090505050505050565b60025481565b6003602052806000526040600020600091509050806000018054600181600116156101000203166002900480601f01602080910402602001604051908101604052809291908181526020018280546001816001161561010002031660029004801561139d5780601f106113725761010080835404028352916020019161139d565b820191906000526020600020905b81548152906001019060200180831161138057829003601f168201915b505050505090806001018054600181600116156101000203166002900480601f01602080910402602001604051908101604052809291908181526020018280546001816001161561010002031660029004801561143b5780601f106114105761010080835404028352916020019161143b565b820191906000526020600020905b81548152906001019060200180831161141e57829003601f168201915b5050505050905082565b60006004846040518082805190602001908083835b60208310151561147f578051825260208201915060208101905060208303925061145a565b6001836020036101000a0380198251168184511680821785525050505050509050019150509081526020016040518091039020549050600015156005600083815260200190815260200160002060050160009054906101000a900460ff161515141515611554576040517f08c379a00000000000000000000000000000000000000000000000000000000081526004018080602001828103825260158152602001807f6d6f64756c6520646f6573206e6f74206578697374000000000000000000000081525060200191505060405180910390fd5b60016000815480929190600101919050555060a0604051908101604052806001548152602001858152602001848152602001838152602001600015158152506006600060015481526020019081526020016000206000820151816000015560208201518160010190805190602001906115ce929190611632565b5060408201518160020190805190602001906115eb929190611632565b506060820151816003019080519060200190611608929190611632565b5060808201518160040160006101000a81548160ff02191690831515021790555090505050505050565b828054600181600116156101000203166002900490600052602060002090601f016020900481019282601f1061167357805160ff19168380011785556116a1565b828001600101855582156116a1579182015b828111156116a0578251825591602001919060010190611685565b5b5090506116ae91906116b2565b5090565b6116d491905b808211156116d05760008160009055506001016116b8565b5090565b9056fea165627a7a72305820153df267928a45527c7a5561bfc5d0a3ef084a04280a03682b90963f3981ebbc0029",
  "source": "pragma solidity >=0.4.21 <0.7.0;\r\n\r\ncontract mainContract{\r\n    uint public moduleCount = 0;\r\n    uint public recordCount = 0;\r\n    uint public acCount = 0;\r\n\r\n    struct Module{\r\n        uint index;\r\n        string code;\r\n        string description;\r\n        string moduleType;\r\n        uint credit;\r\n        bool isDeleted;\r\n    }\r\n\r\n    struct Record{\r\n        uint index;\r\n        string code;\r\n        string grade;\r\n        string student;\r\n        bool isHidden;\r\n    }\r\n\r\n    struct Account{\r\n        string accountNo;\r\n        string name;\r\n    }\r\n\r\n    mapping (uint => Account) public accounts;\r\n\r\n    //Allow us to get Module from code\r\n    mapping (string => uint) codeToIndex;\r\n    mapping (uint => Module) public modules;\r\n\r\n    mapping(uint => Record) public records;\r\n\r\n    constructor() public{\r\n        createModule('IT2529', 'Database management systems', 'CM', 4);\r\n        createModule('IT2951', 'Best Module ever', 'CM', 4);\r\n        createRecord('IT2529', 'A', '0123456789');\r\n    }\r\n\r\n    function addAccount(string memory accountNo, string memory name) public{\r\n        acCount++;\r\n        accounts[acCount] = Account(accountNo, name);\r\n    }\r\n\r\n    function createModule(string memory code, string memory description, string memory moduleType, uint credit) public{\r\n        moduleCount++;\r\n        codeToIndex[code] = moduleCount;\r\n        modules[moduleCount] = Module(moduleCount, code, description, moduleType, credit, false);\r\n    }\r\n\r\n    function deleteModule(string memory code) public{\r\n        uint index = codeToIndex[code];\r\n        modules[index].isDeleted = true;\r\n    }\r\n\r\n    function createRecord(string memory code, string memory grade, string memory student) public{\r\n        uint index = codeToIndex[code];\r\n        require(modules[index].isDeleted == false, \"module does not exist\");\r\n        recordCount++;\r\n        records[recordCount] = Record(recordCount, code, grade, student, false);\r\n    }\r\n\r\n    function hideRecord(uint index) public{\r\n        records[index].isHidden = !records[index].isHidden;\r\n    }\r\n}",
  "sourcePath": "C:/Users/EdCyberGamer/desktop/certapp/contracts/mainContract.sol",
  "compiler": {
    "name": "solc",
    "version": "0.5.0+commit.1d4f565a.Emscripten.clang"
  },
  "schemaVersion": "3.0.2",
  "updatedAt": "2020-05-12T08:24:06.308Z",
  "devdoc": {
    "methods": {}
  },
  "userdoc": {
    "methods": {}
  }
}